{
  "contractName": "VehicleRecord",
  "abi": [
    {
      "inputs": [],
      "payable": false,
      "stateMutability": "nonpayable",
      "type": "constructor"
    },
    {
      "constant": false,
      "inputs": [
        {
          "name": "vin",
          "type": "string"
        },
        {
          "name": "odometer",
          "type": "uint256"
        },
        {
          "name": "service",
          "type": "string"
        }
      ],
      "name": "addReport",
      "outputs": [],
      "payable": false,
      "stateMutability": "nonpayable",
      "type": "function"
    },
    {
      "constant": true,
      "inputs": [],
      "name": "getReports",
      "outputs": [
        {
          "components": [
            {
              "name": "owner",
              "type": "address"
            },
            {
              "name": "vin",
              "type": "string"
            },
            {
              "name": "odometer",
              "type": "uint256"
            },
            {
              "name": "service",
              "type": "string"
            },
            {
              "name": "timestamp",
              "type": "uint256"
            }
          ],
          "name": "",
          "type": "tuple[]"
        }
      ],
      "payable": false,
      "stateMutability": "view",
      "type": "function"
    },
    {
      "constant": true,
      "inputs": [
        {
          "name": "index",
          "type": "uint256"
        }
      ],
      "name": "getReport",
      "outputs": [
        {
          "name": "vin",
          "type": "string"
        },
        {
          "name": "odometer",
          "type": "uint256"
        },
        {
          "name": "service",
          "type": "string"
        },
        {
          "name": "timestamp",
          "type": "uint256"
        }
      ],
      "payable": false,
      "stateMutability": "view",
      "type": "function"
    },
    {
      "constant": true,
      "inputs": [],
      "name": "getNumReport",
      "outputs": [
        {
          "name": "",
          "type": "uint256"
        }
      ],
      "payable": false,
      "stateMutability": "view",
      "type": "function"
    }
  ],
  "bytecode": "0x608060405234801561001057600080fd5b50610a09806100206000396000f3fe6080604052600436106100615763ffffffff7c01000000000000000000000000000000000000000000000000000000006000350416631552991081146100665780633dbf7605146100915780634e7f9b19146100b3578063a3c86daf146100e3575b600080fd5b34801561007257600080fd5b5061007b610105565b60405161008891906108fe565b60405180910390f35b34801561009d57600080fd5b506100b16100ac3660046106d7565b61010c565b005b3480156100bf57600080fd5b506100d36100ce366004610753565b610215565b60405161008894939291906108b4565b3480156100ef57600080fd5b506100f86103d4565b60405161008891906108a3565b6000545b90565b6040805160a081018252338152602080820186815292820185905260608201849052426080830152600080546001810180835591805283517f290decd9548b62a8d60345a988386fc84ba6bc95484008f6362f93160ef3e5636005909202918201805473ffffffffffffffffffffffffffffffffffffffff191673ffffffffffffffffffffffffffffffffffffffff909216919091178155945180519295936101dc937f290decd9548b62a8d60345a988386fc84ba6bc95484008f6362f93160ef3e56490930192910190610592565b506040820151600282015560608201518051610202916003840191602090910190610592565b5060808201518160040155505050505050565b6060600060606000610225610610565b600080548790811061023357fe5b60009182526020918290206040805160a0810182526005909302909101805473ffffffffffffffffffffffffffffffffffffffff168352600180820180548451601f600260001995841615610100029590950190921693909304908101879004870283018701909452838252939491938583019391929091908301828280156102fd5780601f106102d2576101008083540402835291602001916102fd565b820191906000526020600020905b8154815290600101906020018083116102e057829003601f168201915b505050918352505060028281015460208084019190915260038401805460408051601f6000196101006001861615020190931695909504918201849004840285018401815281855290940193909183018282801561039c5780601f106103715761010080835404028352916020019161039c565b820191906000526020600020905b81548152906001019060200180831161037f57829003601f168201915b505050918352505060049190910154602091820152810151604082015160608301516080909301519199909850919650945092505050565b60606000805480602002602001604051908101604052809291908181526020016000905b828210156105895760008481526020908190206040805160a08101825260058602909201805473ffffffffffffffffffffffffffffffffffffffff168352600180820180548451600261010094831615949094026000190190911692909204601f8101879004870283018701909452838252939491938583019391929091908301828280156104c85780601f1061049d576101008083540402835291602001916104c8565b820191906000526020600020905b8154815290600101906020018083116104ab57829003601f168201915b505050918352505060028281015460208084019190915260038401805460408051601f600019610100600186161502019093169590950491820184900484028501840181528185529094019390918301828280156105675780601f1061053c57610100808354040283529160200191610567565b820191906000526020600020905b81548152906001019060200180831161054a57829003601f168201915b50505050508152602001600482015481525050815260200190600101906103f8565b50505050905090565b828054600181600116156101000203166002900490600052602060002090601f016020900481019282601f106105d357805160ff1916838001178555610600565b82800160010185558215610600579182015b828111156106005782518255916020019190600101906105e5565b5061060c929150610656565b5090565b60a060405190810160405280600073ffffffffffffffffffffffffffffffffffffffff168152602001606081526020016000815260200160608152602001600081525090565b61010991905b8082111561060c576000815560010161065c565b6000601f8201831361068157600080fd5b813561069461068f82610939565b610912565b915080825260208301602083018583830111156106b057600080fd5b6106bb838284610989565b50505092915050565b60006106d08235610109565b9392505050565b6000806000606084860312156106ec57600080fd5b833567ffffffffffffffff81111561070357600080fd5b61070f86828701610670565b9350506020610720868287016106c4565b925050604084013567ffffffffffffffff81111561073d57600080fd5b61074986828701610670565b9150509250925092565b60006020828403121561076557600080fd5b600061077184846106c4565b949350505050565b6107828161096b565b82525050565b600061079382610967565b808452602084019350836020820285016107ac85610961565b60005b848110156107e35783830388526107c7838351610824565b92506107d282610961565b6020989098019791506001016107af565b50909695505050505050565b60006107fa82610967565b80845261080e816020860160208601610995565b610817816109c5565b9093016020019392505050565b805160009060a08401906108388582610779565b506020830151848203602086015261085082826107ef565b9150506040830151610865604086018261089a565b506060830151848203606086015261087d82826107ef565b9150506080830151610892608086018261089a565b509392505050565b61078281610109565b602080825281016106d08184610788565b608080825281016108c581876107ef565b90506108d4602083018661089a565b81810360408301526108e681856107ef565b90506108f5606083018461089a565b95945050505050565b6020810161090c828461089a565b92915050565b60405181810167ffffffffffffffff8111828210171561093157600080fd5b604052919050565b600067ffffffffffffffff82111561095057600080fd5b506020601f91909101601f19160190565b60200190565b5190565b600073ffffffffffffffffffffffffffffffffffffffff821661090c565b82818337506000910152565b60005b838110156109b0578181015183820152602001610998565b838111156109bf576000848401525b50505050565b601f01601f19169056fea265627a7a723058203d03d4c6ff621759ab5943b831c24ba5a3e31407d684e96afab74328117190d16c6578706572696d656e74616cf50037",
  "source": "pragma solidity ^0.5.0;\r\npragma experimental ABIEncoderV2;\r\n\r\ncontract VehicleRecord {\r\n    struct VehicleReport {\r\n        address owner;\r\n        string vin;\r\n        uint256 odometer;\r\n        string service;\r\n        uint256 timestamp;\r\n    }\r\n\r\n    VehicleReport[] reports;\r\n\r\n    constructor() public {}\r\n\r\n    function addReport(\r\n        string memory vin,\r\n        uint256 odometer,\r\n        string memory service\r\n    ) public {\r\n        reports.push(\r\n            VehicleReport(msg.sender, vin, odometer, service, block.timestamp)\r\n        );\r\n    }\r\n\r\n    function getReports() public view returns (VehicleReport[] memory) {\r\n        return reports;\r\n    }\r\n\r\n    function getReport(uint256 index)\r\n        public\r\n        view\r\n        returns (\r\n            string memory vin,\r\n            uint256 odometer,\r\n            string memory service,\r\n            uint256 timestamp\r\n        )\r\n    {\r\n        VehicleReport memory report = reports[index];\r\n        return (report.vin, report.odometer, report.service, report.timestamp);\r\n    }\r\n\r\n    function getNumReport() public view returns (uint256) {\r\n        return reports.length;\r\n    }\r\n}\r\n",
  "sourcePath": "C:/Users/nateg/Documents/Code/CMPE-183-Final-Project/contracts/VehicleRecord.sol",
  "compiler": {
    "name": "solc",
    "version": "0.5.0+commit.1d4f565a.Emscripten.clang"
  },
  "schemaVersion": "3.0.1",
  "updatedAt": "2021-12-02T23:57:58.521Z",
  "devdoc": {
    "methods": {}
  },
  "userdoc": {
    "methods": {}
  }
}